{
  "_format": "hh-sol-artifact-1",
  "contractName": "NarutoNFT",
  "sourceName": "contracts/NarutoNFT.sol",
  "abi": [
    {
      "inputs": [],
      "stateMutability": "payable",
      "type": "constructor"
    },
    {
      "anonymous": false,
      "inputs": [
        {
          "indexed": true,
          "internalType": "address",
          "name": "owner",
          "type": "address"
        },
        {
          "indexed": true,
          "internalType": "address",
          "name": "approved",
          "type": "address"
        },
        {
          "indexed": true,
          "internalType": "uint256",
          "name": "tokenId",
          "type": "uint256"
        }
      ],
      "name": "Approval",
      "type": "event"
    },
    {
      "anonymous": false,
      "inputs": [
        {
          "indexed": true,
          "internalType": "address",
          "name": "owner",
          "type": "address"
        },
        {
          "indexed": true,
          "internalType": "address",
          "name": "operator",
          "type": "address"
        },
        {
          "indexed": false,
          "internalType": "bool",
          "name": "approved",
          "type": "bool"
        }
      ],
      "name": "ApprovalForAll",
      "type": "event"
    },
    {
      "anonymous": false,
      "inputs": [
        {
          "indexed": true,
          "internalType": "address",
          "name": "previousOwner",
          "type": "address"
        },
        {
          "indexed": true,
          "internalType": "address",
          "name": "newOwner",
          "type": "address"
        }
      ],
      "name": "OwnershipTransferred",
      "type": "event"
    },
    {
      "anonymous": false,
      "inputs": [
        {
          "indexed": true,
          "internalType": "address",
          "name": "from",
          "type": "address"
        },
        {
          "indexed": true,
          "internalType": "address",
          "name": "to",
          "type": "address"
        },
        {
          "indexed": true,
          "internalType": "uint256",
          "name": "tokenId",
          "type": "uint256"
        }
      ],
      "name": "Transfer",
      "type": "event"
    },
    {
      "anonymous": false,
      "inputs": [
        {
          "indexed": false,
          "internalType": "address",
          "name": "sender",
          "type": "address"
        },
        {
          "indexed": false,
          "internalType": "uint256",
          "name": "currentBossHP",
          "type": "uint256"
        }
      ],
      "name": "attackSuccess",
      "type": "event"
    },
    {
      "inputs": [
        {
          "internalType": "string",
          "name": "_tokenURI",
          "type": "string"
        },
        {
          "internalType": "uint256",
          "name": "_bossHP",
          "type": "uint256"
        }
      ],
      "name": "addBoss",
      "outputs": [
        {
          "internalType": "uint256",
          "name": "",
          "type": "uint256"
        }
      ],
      "stateMutability": "nonpayable",
      "type": "function"
    },
    {
      "inputs": [
        {
          "internalType": "address",
          "name": "to",
          "type": "address"
        },
        {
          "internalType": "uint256",
          "name": "tokenId",
          "type": "uint256"
        }
      ],
      "name": "approve",
      "outputs": [],
      "stateMutability": "nonpayable",
      "type": "function"
    },
    {
      "inputs": [
        {
          "internalType": "uint256",
          "name": "damage",
          "type": "uint256"
        }
      ],
      "name": "attack",
      "outputs": [],
      "stateMutability": "payable",
      "type": "function"
    },
    {
      "inputs": [
        {
          "internalType": "address",
          "name": "owner",
          "type": "address"
        }
      ],
      "name": "balanceOf",
      "outputs": [
        {
          "internalType": "uint256",
          "name": "",
          "type": "uint256"
        }
      ],
      "stateMutability": "view",
      "type": "function"
    },
    {
      "inputs": [],
      "name": "bossHP",
      "outputs": [
        {
          "internalType": "uint256",
          "name": "",
          "type": "uint256"
        }
      ],
      "stateMutability": "view",
      "type": "function"
    },
    {
      "inputs": [],
      "name": "currentBossTokenURI",
      "outputs": [
        {
          "internalType": "string",
          "name": "",
          "type": "string"
        }
      ],
      "stateMutability": "view",
      "type": "function"
    },
    {
      "inputs": [],
      "name": "deleteBoss",
      "outputs": [],
      "stateMutability": "nonpayable",
      "type": "function"
    },
    {
      "inputs": [
        {
          "internalType": "uint256",
          "name": "tokenId",
          "type": "uint256"
        }
      ],
      "name": "getApproved",
      "outputs": [
        {
          "internalType": "address",
          "name": "",
          "type": "address"
        }
      ],
      "stateMutability": "view",
      "type": "function"
    },
    {
      "inputs": [],
      "name": "getBossURI",
      "outputs": [
        {
          "internalType": "string",
          "name": "",
          "type": "string"
        }
      ],
      "stateMutability": "view",
      "type": "function"
    },
    {
      "inputs": [
        {
          "internalType": "address",
          "name": "_accountAddress",
          "type": "address"
        }
      ],
      "name": "getWalletMints",
      "outputs": [
        {
          "internalType": "string[]",
          "name": "",
          "type": "string[]"
        }
      ],
      "stateMutability": "view",
      "type": "function"
    },
    {
      "inputs": [
        {
          "internalType": "address",
          "name": "owner",
          "type": "address"
        },
        {
          "internalType": "address",
          "name": "operator",
          "type": "address"
        }
      ],
      "name": "isApprovedForAll",
      "outputs": [
        {
          "internalType": "bool",
          "name": "",
          "type": "bool"
        }
      ],
      "stateMutability": "view",
      "type": "function"
    },
    {
      "inputs": [],
      "name": "isPublicMintEnabled",
      "outputs": [
        {
          "internalType": "bool",
          "name": "",
          "type": "bool"
        }
      ],
      "stateMutability": "view",
      "type": "function"
    },
    {
      "inputs": [],
      "name": "maxPerWallet",
      "outputs": [
        {
          "internalType": "uint256",
          "name": "",
          "type": "uint256"
        }
      ],
      "stateMutability": "view",
      "type": "function"
    },
    {
      "inputs": [
        {
          "internalType": "string",
          "name": "_tokenURI",
          "type": "string"
        }
      ],
      "name": "mint",
      "outputs": [
        {
          "internalType": "uint256",
          "name": "",
          "type": "uint256"
        }
      ],
      "stateMutability": "payable",
      "type": "function"
    },
    {
      "inputs": [],
      "name": "mintPrice",
      "outputs": [
        {
          "internalType": "uint256",
          "name": "",
          "type": "uint256"
        }
      ],
      "stateMutability": "view",
      "type": "function"
    },
    {
      "inputs": [],
      "name": "name",
      "outputs": [
        {
          "internalType": "string",
          "name": "",
          "type": "string"
        }
      ],
      "stateMutability": "view",
      "type": "function"
    },
    {
      "inputs": [],
      "name": "owner",
      "outputs": [
        {
          "internalType": "address",
          "name": "",
          "type": "address"
        }
      ],
      "stateMutability": "view",
      "type": "function"
    },
    {
      "inputs": [
        {
          "internalType": "uint256",
          "name": "tokenId",
          "type": "uint256"
        }
      ],
      "name": "ownerOf",
      "outputs": [
        {
          "internalType": "address",
          "name": "",
          "type": "address"
        }
      ],
      "stateMutability": "view",
      "type": "function"
    },
    {
      "inputs": [],
      "name": "renounceOwnership",
      "outputs": [],
      "stateMutability": "nonpayable",
      "type": "function"
    },
    {
      "inputs": [
        {
          "internalType": "address",
          "name": "from",
          "type": "address"
        },
        {
          "internalType": "address",
          "name": "to",
          "type": "address"
        },
        {
          "internalType": "uint256",
          "name": "tokenId",
          "type": "uint256"
        }
      ],
      "name": "safeTransferFrom",
      "outputs": [],
      "stateMutability": "nonpayable",
      "type": "function"
    },
    {
      "inputs": [
        {
          "internalType": "address",
          "name": "from",
          "type": "address"
        },
        {
          "internalType": "address",
          "name": "to",
          "type": "address"
        },
        {
          "internalType": "uint256",
          "name": "tokenId",
          "type": "uint256"
        },
        {
          "internalType": "bytes",
          "name": "_data",
          "type": "bytes"
        }
      ],
      "name": "safeTransferFrom",
      "outputs": [],
      "stateMutability": "nonpayable",
      "type": "function"
    },
    {
      "inputs": [
        {
          "internalType": "address",
          "name": "operator",
          "type": "address"
        },
        {
          "internalType": "bool",
          "name": "approved",
          "type": "bool"
        }
      ],
      "name": "setApprovalForAll",
      "outputs": [],
      "stateMutability": "nonpayable",
      "type": "function"
    },
    {
      "inputs": [
        {
          "internalType": "string",
          "name": "baseURI_",
          "type": "string"
        }
      ],
      "name": "setBaseURI",
      "outputs": [],
      "stateMutability": "nonpayable",
      "type": "function"
    },
    {
      "inputs": [
        {
          "internalType": "bool",
          "name": "_isPublicMintEnabled",
          "type": "bool"
        }
      ],
      "name": "setIsPublicMintEnabled",
      "outputs": [],
      "stateMutability": "nonpayable",
      "type": "function"
    },
    {
      "inputs": [
        {
          "internalType": "bytes4",
          "name": "interfaceId",
          "type": "bytes4"
        }
      ],
      "name": "supportsInterface",
      "outputs": [
        {
          "internalType": "bool",
          "name": "",
          "type": "bool"
        }
      ],
      "stateMutability": "view",
      "type": "function"
    },
    {
      "inputs": [],
      "name": "symbol",
      "outputs": [
        {
          "internalType": "string",
          "name": "",
          "type": "string"
        }
      ],
      "stateMutability": "view",
      "type": "function"
    },
    {
      "inputs": [
        {
          "internalType": "uint256",
          "name": "tokenId",
          "type": "uint256"
        }
      ],
      "name": "tokenURI",
      "outputs": [
        {
          "internalType": "string",
          "name": "",
          "type": "string"
        }
      ],
      "stateMutability": "view",
      "type": "function"
    },
    {
      "inputs": [],
      "name": "totalSupply",
      "outputs": [
        {
          "internalType": "uint256",
          "name": "",
          "type": "uint256"
        }
      ],
      "stateMutability": "view",
      "type": "function"
    },
    {
      "inputs": [
        {
          "internalType": "address",
          "name": "from",
          "type": "address"
        },
        {
          "internalType": "address",
          "name": "to",
          "type": "address"
        },
        {
          "internalType": "uint256",
          "name": "tokenId",
          "type": "uint256"
        }
      ],
      "name": "transferFrom",
      "outputs": [],
      "stateMutability": "nonpayable",
      "type": "function"
    },
    {
      "inputs": [
        {
          "internalType": "address",
          "name": "newOwner",
          "type": "address"
        }
      ],
      "name": "transferOwnership",
      "outputs": [],
      "stateMutability": "nonpayable",
      "type": "function"
    },
    {
      "inputs": [
        {
          "internalType": "address",
          "name": "",
          "type": "address"
        },
        {
          "internalType": "uint256",
          "name": "",
          "type": "uint256"
        }
      ],
      "name": "walletMints",
      "outputs": [
        {
          "internalType": "string",
          "name": "",
          "type": "string"
        }
      ],
      "stateMutability": "view",
      "type": "function"
    },
    {
      "inputs": [],
      "name": "withdraw",
      "outputs": [],
      "stateMutability": "payable",
      "type": "function"
    }
  ],
  "bytecode": "0x60806040526040518060400160405280600981526020017f4e617275746f4e465400000000000000000000000000000000000000000000008152506040518060400160405280600381526020017f4e61720000000000000000000000000000000000000000000000000000000000815250816000908051906020019062000088929190620001f7565b508060019080519060200190620000a1929190620001f7565b505050620000c4620000b86200012960201b60201c565b6200013160201b60201c565b66071afd498d00006009819055506032600a819055506003600b8190555033600e60006101000a81548173ffffffffffffffffffffffffffffffffffffffff021916908373ffffffffffffffffffffffffffffffffffffffff1602179055506200030c565b600033905090565b6000600660009054906101000a900473ffffffffffffffffffffffffffffffffffffffff16905081600660006101000a81548173ffffffffffffffffffffffffffffffffffffffff021916908373ffffffffffffffffffffffffffffffffffffffff1602179055508173ffffffffffffffffffffffffffffffffffffffff168173ffffffffffffffffffffffffffffffffffffffff167f8be0079c531659141344cd1fd0a4f28419497f9722a3daafe3b4186f6b6457e060405160405180910390a35050565b8280546200020590620002a7565b90600052602060002090601f01602090048101928262000229576000855562000275565b82601f106200024457805160ff191683800117855562000275565b8280016001018555821562000275579182015b828111156200027457825182559160200191906001019062000257565b5b50905062000284919062000288565b5090565b5b80821115620002a357600081600090555060010162000289565b5090565b60006002820490506001821680620002c057607f821691505b60208210811415620002d757620002d6620002dd565b5b50919050565b7f4e487b7100000000000000000000000000000000000000000000000000000000600052602260045260246000fd5b61412b806200031c6000396000f3fe6080604052600436106101e35760003560e01c80636817c76c11610102578063b8f1cfc211610095578063e2a65e1311610064578063e2a65e13146106a7578063e985e9c5146106e4578063e9e3a53e14610721578063f2fde38b1461075e576101e3565b8063b8f1cfc2146105f8578063c87b56dd1461060f578063c8c643d51461064c578063d85d3d2714610677576101e3565b806395d89b41116100d157806395d89b411461053e578063a22cb46514610569578063a744685f14610592578063b88d4fde146105cf576101e3565b80636817c76c1461049457806370a08231146104bf578063715018a6146104fc5780638da5cb5b14610513576101e3565b806323b872dd1161017a5780634b3e0509116101495780634b3e0509146103e757806355f804b3146104125780636352211e1461043b57806364dd891a14610478576101e3565b806323b872dd146103605780633ccfd60b1461038957806342842e0e14610393578063453c2310146103bc576101e3565b8063095ea7b3116101b6578063095ea7b3146102b857806318160ddd146102e15780631fb19e091461030c5780632373ac2214610337576101e3565b80630116bc2d146101e857806301ffc9a71461021357806306fdde0314610250578063081812fc1461027b575b600080fd5b3480156101f457600080fd5b506101fd610787565b60405161020a919061336c565b60405180910390f35b34801561021f57600080fd5b5061023a60048036038101906102359190612cf2565b61079a565b604051610247919061336c565b60405180910390f35b34801561025c57600080fd5b5061026561087c565b6040516102729190613387565b60405180910390f35b34801561028757600080fd5b506102a2600480360381019061029d9190612dd9565b61090e565b6040516102af91906132ba565b60405180910390f35b3480156102c457600080fd5b506102df60048036038101906102da9190612c8d565b610993565b005b3480156102ed57600080fd5b506102f6610aab565b6040516103039190613669565b60405180910390f35b34801561031857600080fd5b50610321610ab1565b60405161032e9190613387565b60405180910390f35b34801561034357600080fd5b5061035e60048036038101906103599190612cc9565b610b3f565b005b34801561036c57600080fd5b5061038760048036038101906103829190612b87565b610bd8565b005b610391610c38565b005b34801561039f57600080fd5b506103ba60048036038101906103b59190612b87565b610cfd565b005b3480156103c857600080fd5b506103d1610d1d565b6040516103de9190613669565b60405180910390f35b3480156103f357600080fd5b506103fc610d23565b6040516104099190613669565b60405180910390f35b34801561041e57600080fd5b5061043960048036038101906104349190612d44565b610d29565b005b34801561044757600080fd5b50610462600480360381019061045d9190612dd9565b610dbf565b60405161046f91906132ba565b60405180910390f35b610492600480360381019061048d9190612dd9565b610e71565b005b3480156104a057600080fd5b506104a9610f3e565b6040516104b69190613669565b60405180910390f35b3480156104cb57600080fd5b506104e660048036038101906104e19190612b22565b610f44565b6040516104f39190613669565b60405180910390f35b34801561050857600080fd5b50610511610ffc565b005b34801561051f57600080fd5b50610528611084565b60405161053591906132ba565b60405180910390f35b34801561054a57600080fd5b506105536110ae565b6040516105609190613387565b60405180910390f35b34801561057557600080fd5b50610590600480360381019061058b9190612c51565b611140565b005b34801561059e57600080fd5b506105b960048036038101906105b49190612c8d565b611156565b6040516105c69190613387565b60405180910390f35b3480156105db57600080fd5b506105f660048036038101906105f19190612bd6565b61120f565b005b34801561060457600080fd5b5061060d611271565b005b34801561061b57600080fd5b5061063660048036038101906106319190612dd9565b61131d565b6040516106439190613387565b60405180910390f35b34801561065857600080fd5b50610661611490565b60405161066e9190613387565b60405180910390f35b610691600480360381019061068c9190612d44565b611522565b60405161069e9190613669565b60405180910390f35b3480156106b357600080fd5b506106ce60048036038101906106c99190612d85565b6116e0565b6040516106db9190613669565b60405180910390f35b3480156106f057600080fd5b5061070b60048036038101906107069190612b4b565b611849565b604051610718919061336c565b60405180910390f35b34801561072d57600080fd5b5061074860048036038101906107439190612b22565b6118dd565b604051610755919061334a565b60405180910390f35b34801561076a57600080fd5b5061078560048036038101906107809190612b22565b6119f5565b005b600c60009054906101000a900460ff1681565b60007f80ac58cd000000000000000000000000000000000000000000000000000000007bffffffffffffffffffffffffffffffffffffffffffffffffffffffff1916827bffffffffffffffffffffffffffffffffffffffffffffffffffffffff1916148061086557507f5b5e139f000000000000000000000000000000000000000000000000000000007bffffffffffffffffffffffffffffffffffffffffffffffffffffffff1916827bffffffffffffffffffffffffffffffffffffffffffffffffffffffff1916145b80610875575061087482611aed565b5b9050919050565b60606000805461088b90613909565b80601f01602080910402602001604051908101604052809291908181526020018280546108b790613909565b80156109045780601f106108d957610100808354040283529160200191610904565b820191906000526020600020905b8154815290600101906020018083116108e757829003601f168201915b5050505050905090565b600061091982611b57565b610958576040517f08c379a000000000000000000000000000000000000000000000000000000000815260040161094f90613569565b60405180910390fd5b6004600083815260200190815260200160002060009054906101000a900473ffffffffffffffffffffffffffffffffffffffff169050919050565b600061099e82610dbf565b90508073ffffffffffffffffffffffffffffffffffffffff168373ffffffffffffffffffffffffffffffffffffffff161415610a0f576040517f08c379a0000000000000000000000000000000000000000000000000000000008152600401610a06906135e9565b60405180910390fd5b8073ffffffffffffffffffffffffffffffffffffffff16610a2e611bc3565b73ffffffffffffffffffffffffffffffffffffffff161480610a5d5750610a5c81610a57611bc3565b611849565b5b610a9c576040517f08c379a0000000000000000000000000000000000000000000000000000000008152600401610a93906134e9565b60405180910390fd5b610aa68383611bcb565b505050565b600a5481565b60128054610abe90613909565b80601f0160208091040260200160405190810160405280929190818152602001828054610aea90613909565b8015610b375780601f10610b0c57610100808354040283529160200191610b37565b820191906000526020600020905b815481529060010190602001808311610b1a57829003601f168201915b505050505081565b610b47611bc3565b73ffffffffffffffffffffffffffffffffffffffff16610b65611084565b73ffffffffffffffffffffffffffffffffffffffff1614610bbb576040517f08c379a0000000000000000000000000000000000000000000000000000000008152600401610bb2906135a9565b60405180910390fd5b80600c60006101000a81548160ff02191690831515021790555050565b610be9610be3611bc3565b82611c84565b610c28576040517f08c379a0000000000000000000000000000000000000000000000000000000008152600401610c1f90613609565b60405180910390fd5b610c33838383611d62565b505050565b610c40611bc3565b73ffffffffffffffffffffffffffffffffffffffff16610c5e611084565b73ffffffffffffffffffffffffffffffffffffffff1614610cb4576040517f08c379a0000000000000000000000000000000000000000000000000000000008152600401610cab906135a9565b60405180910390fd5b3373ffffffffffffffffffffffffffffffffffffffff166108fc479081150290604051600060405180830381858888f19350505050158015610cfa573d6000803e3d6000fd5b50565b610d188383836040518060200160405280600081525061120f565b505050565b600b5481565b60115481565b610d31611bc3565b73ffffffffffffffffffffffffffffffffffffffff16610d4f611084565b73ffffffffffffffffffffffffffffffffffffffff1614610da5576040517f08c379a0000000000000000000000000000000000000000000000000000000008152600401610d9c906135a9565b60405180910390fd5b8060089080519060200190610dbb929190612946565b5050565b6000806002600084815260200190815260200160002060009054906101000a900473ffffffffffffffffffffffffffffffffffffffff169050600073ffffffffffffffffffffffffffffffffffffffff168173ffffffffffffffffffffffffffffffffffffffff161415610e68576040517f08c379a0000000000000000000000000000000000000000000000000000000008152600401610e5f90613529565b60405180910390fd5b80915050919050565b600060115411610eb6576040517f08c379a0000000000000000000000000000000000000000000000000000000008152600401610ead90613629565b60405180910390fd5b8060116000828254610ec8919061381f565b92505081905550600060115411610f00576040518060200160405280600081525060129080519060200190610efe929190612946565b505b7f70f37d221c8687891f513d4005d8e704764231801715b51ca0d3310e5c373b5933601154604051610f33929190613321565b60405180910390a150565b60095481565b60008073ffffffffffffffffffffffffffffffffffffffff168273ffffffffffffffffffffffffffffffffffffffff161415610fb5576040517f08c379a0000000000000000000000000000000000000000000000000000000008152600401610fac90613509565b60405180910390fd5b600360008373ffffffffffffffffffffffffffffffffffffffff1673ffffffffffffffffffffffffffffffffffffffff168152602001908152602001600020549050919050565b611004611bc3565b73ffffffffffffffffffffffffffffffffffffffff16611022611084565b73ffffffffffffffffffffffffffffffffffffffff1614611078576040517f08c379a000000000000000000000000000000000000000000000000000000000815260040161106f906135a9565b60405180910390fd5b6110826000611fc9565b565b6000600660009054906101000a900473ffffffffffffffffffffffffffffffffffffffff16905090565b6060600180546110bd90613909565b80601f01602080910402602001604051908101604052809291908181526020018280546110e990613909565b80156111365780601f1061110b57610100808354040283529160200191611136565b820191906000526020600020905b81548152906001019060200180831161111957829003601f168201915b5050505050905090565b61115261114b611bc3565b838361208f565b5050565b600f602052816000526040600020818154811061117257600080fd5b9060005260206000200160009150915050805461118e90613909565b80601f01602080910402602001604051908101604052809291908181526020018280546111ba90613909565b80156112075780601f106111dc57610100808354040283529160200191611207565b820191906000526020600020905b8154815290600101906020018083116111ea57829003601f168201915b505050505081565b61122061121a611bc3565b83611c84565b61125f576040517f08c379a000000000000000000000000000000000000000000000000000000000815260040161125690613609565b60405180910390fd5b61126b848484846121fc565b50505050565b611279611bc3565b73ffffffffffffffffffffffffffffffffffffffff16611297611084565b73ffffffffffffffffffffffffffffffffffffffff16146112ed576040517f08c379a00000000000000000000000000000000000000000000000000000000081526004016112e4906135a9565b60405180910390fd5b6000601181905550604051806020016040528060008152506012908051906020019061131a929190612946565b50565b606061132882611b57565b611367576040517f08c379a000000000000000000000000000000000000000000000000000000000815260040161135e906135c9565b60405180910390fd5b600060106000848152602001908152602001600020805461138790613909565b80601f01602080910402602001604051908101604052809291908181526020018280546113b390613909565b80156114005780601f106113d557610100808354040283529160200191611400565b820191906000526020600020905b8154815290600101906020018083116113e357829003601f168201915b505050505090506000611411612258565b905060008151141561142757819250505061148b565b60008251111561145c578082604051602001611444929190613296565b6040516020818303038152906040529250505061148b565b80611466856122ea565b604051602001611477929190613296565b604051602081830303815290604052925050505b919050565b60606012805461149f90613909565b80601f01602080910402602001604051908101604052809291908181526020018280546114cb90613909565b80156115185780601f106114ed57610100808354040283529160200191611518565b820191906000526020600020905b8154815290600101906020018083116114fb57829003601f168201915b5050505050905090565b6000600c60009054906101000a900460ff16611573576040517f08c379a000000000000000000000000000000000000000000000000000000000815260040161156a906133c9565b60405180910390fd5b600b54600f60003373ffffffffffffffffffffffffffffffffffffffff1673ffffffffffffffffffffffffffffffffffffffff16815260200190815260200160002080549050106115f9576040517f08c379a00000000000000000000000000000000000000000000000000000000081526004016115f0906133a9565b60405180910390fd5b600954341461163d576040517f08c379a000000000000000000000000000000000000000000000000000000000815260040161163490613649565b60405180910390fd5b6116476007612497565b600061165360076124ad565b905082600f60003373ffffffffffffffffffffffffffffffffffffffff1673ffffffffffffffffffffffffffffffffffffffff168152602001908152602001600020600181600181540180825580915050039060005260206000200190805190602001906116c2929190612946565b506116cd33826124bb565b6116d781846124d9565b80915050919050565b60006116ea611bc3565b73ffffffffffffffffffffffffffffffffffffffff16611708611084565b73ffffffffffffffffffffffffffffffffffffffff161461175e576040517f08c379a0000000000000000000000000000000000000000000000000000000008152600401611755906135a9565b60405180910390fd5b600060115411156117a4576040517f08c379a000000000000000000000000000000000000000000000000000000000815260040161179b906134c9565b60405180910390fd5b6000601280546117b390613909565b9050146117f5576040517f08c379a00000000000000000000000000000000000000000000000000000000081526004016117ec906134c9565b60405180910390fd5b816011819055508260129080519060200190611812929190612946565b5061181d6007612497565b600061182960076124ad565b905061183533826124bb565b61183f81856124d9565b8091505092915050565b6000600560008473ffffffffffffffffffffffffffffffffffffffff1673ffffffffffffffffffffffffffffffffffffffff16815260200190815260200160002060008373ffffffffffffffffffffffffffffffffffffffff1673ffffffffffffffffffffffffffffffffffffffff16815260200190815260200160002060009054906101000a900460ff16905092915050565b6060600f60008373ffffffffffffffffffffffffffffffffffffffff1673ffffffffffffffffffffffffffffffffffffffff168152602001908152602001600020805480602002602001604051908101604052809291908181526020016000905b828210156119ea57838290600052602060002001805461195d90613909565b80601f016020809104026020016040519081016040528092919081815260200182805461198990613909565b80156119d65780601f106119ab576101008083540402835291602001916119d6565b820191906000526020600020905b8154815290600101906020018083116119b957829003601f168201915b50505050508152602001906001019061193e565b505050509050919050565b6119fd611bc3565b73ffffffffffffffffffffffffffffffffffffffff16611a1b611084565b73ffffffffffffffffffffffffffffffffffffffff1614611a71576040517f08c379a0000000000000000000000000000000000000000000000000000000008152600401611a68906135a9565b60405180910390fd5b600073ffffffffffffffffffffffffffffffffffffffff168173ffffffffffffffffffffffffffffffffffffffff161415611ae1576040517f08c379a0000000000000000000000000000000000000000000000000000000008152600401611ad890613409565b60405180910390fd5b611aea81611fc9565b50565b60007f01ffc9a7000000000000000000000000000000000000000000000000000000007bffffffffffffffffffffffffffffffffffffffffffffffffffffffff1916827bffffffffffffffffffffffffffffffffffffffffffffffffffffffff1916149050919050565b60008073ffffffffffffffffffffffffffffffffffffffff166002600084815260200190815260200160002060009054906101000a900473ffffffffffffffffffffffffffffffffffffffff1673ffffffffffffffffffffffffffffffffffffffff1614159050919050565b600033905090565b816004600083815260200190815260200160002060006101000a81548173ffffffffffffffffffffffffffffffffffffffff021916908373ffffffffffffffffffffffffffffffffffffffff160217905550808273ffffffffffffffffffffffffffffffffffffffff16611c3e83610dbf565b73ffffffffffffffffffffffffffffffffffffffff167f8c5be1e5ebec7d5bd14f71427d1e84f3dd0314c0f7b2291e5b200ac8c7c3b92560405160405180910390a45050565b6000611c8f82611b57565b611cce576040517f08c379a0000000000000000000000000000000000000000000000000000000008152600401611cc5906134a9565b60405180910390fd5b6000611cd983610dbf565b90508073ffffffffffffffffffffffffffffffffffffffff168473ffffffffffffffffffffffffffffffffffffffff161480611d1b5750611d1a8185611849565b5b80611d5957508373ffffffffffffffffffffffffffffffffffffffff16611d418461090e565b73ffffffffffffffffffffffffffffffffffffffff16145b91505092915050565b8273ffffffffffffffffffffffffffffffffffffffff16611d8282610dbf565b73ffffffffffffffffffffffffffffffffffffffff1614611dd8576040517f08c379a0000000000000000000000000000000000000000000000000000000008152600401611dcf90613429565b60405180910390fd5b600073ffffffffffffffffffffffffffffffffffffffff168273ffffffffffffffffffffffffffffffffffffffff161415611e48576040517f08c379a0000000000000000000000000000000000000000000000000000000008152600401611e3f90613469565b60405180910390fd5b611e5383838361254d565b611e5e600082611bcb565b6001600360008573ffffffffffffffffffffffffffffffffffffffff1673ffffffffffffffffffffffffffffffffffffffff1681526020019081526020016000206000828254611eae919061381f565b925050819055506001600360008473ffffffffffffffffffffffffffffffffffffffff1673ffffffffffffffffffffffffffffffffffffffff1681526020019081526020016000206000828254611f059190613798565b92505081905550816002600083815260200190815260200160002060006101000a81548173ffffffffffffffffffffffffffffffffffffffff021916908373ffffffffffffffffffffffffffffffffffffffff160217905550808273ffffffffffffffffffffffffffffffffffffffff168473ffffffffffffffffffffffffffffffffffffffff167fddf252ad1be2c89b69c2b068fc378daa952ba7f163c4a11628f55a4df523b3ef60405160405180910390a4611fc4838383612552565b505050565b6000600660009054906101000a900473ffffffffffffffffffffffffffffffffffffffff16905081600660006101000a81548173ffffffffffffffffffffffffffffffffffffffff021916908373ffffffffffffffffffffffffffffffffffffffff1602179055508173ffffffffffffffffffffffffffffffffffffffff168173ffffffffffffffffffffffffffffffffffffffff167f8be0079c531659141344cd1fd0a4f28419497f9722a3daafe3b4186f6b6457e060405160405180910390a35050565b8173ffffffffffffffffffffffffffffffffffffffff168373ffffffffffffffffffffffffffffffffffffffff1614156120fe576040517f08c379a00000000000000000000000000000000000000000000000000000000081526004016120f590613489565b60405180910390fd5b80600560008573ffffffffffffffffffffffffffffffffffffffff1673ffffffffffffffffffffffffffffffffffffffff16815260200190815260200160002060008473ffffffffffffffffffffffffffffffffffffffff1673ffffffffffffffffffffffffffffffffffffffff16815260200190815260200160002060006101000a81548160ff0219169083151502179055508173ffffffffffffffffffffffffffffffffffffffff168373ffffffffffffffffffffffffffffffffffffffff167f17307eab39ab6107e8899845ad3d59bd9653f200f220920489ca2b5937696c31836040516121ef919061336c565b60405180910390a3505050565b612207848484611d62565b61221384848484612557565b612252576040517f08c379a0000000000000000000000000000000000000000000000000000000008152600401612249906133e9565b60405180910390fd5b50505050565b60606008805461226790613909565b80601f016020809104026020016040519081016040528092919081815260200182805461229390613909565b80156122e05780601f106122b5576101008083540402835291602001916122e0565b820191906000526020600020905b8154815290600101906020018083116122c357829003601f168201915b5050505050905090565b60606000821415612332576040518060400160405280600181526020017f30000000000000000000000000000000000000000000000000000000000000008152509050612492565b600082905060005b6000821461236457808061234d9061396c565b915050600a8261235d91906137ee565b915061233a565b60008167ffffffffffffffff8111156123a6577f4e487b7100000000000000000000000000000000000000000000000000000000600052604160045260246000fd5b6040519080825280601f01601f1916602001820160405280156123d85781602001600182028036833780820191505090505b5090505b6000851461248b576001826123f1919061381f565b9150600a8561240091906139b5565b603061240c9190613798565b60f81b818381518110612448577f4e487b7100000000000000000000000000000000000000000000000000000000600052603260045260246000fd5b60200101907effffffffffffffffffffffffffffffffffffffffffffffffffffffffffffff1916908160001a905350600a8561248491906137ee565b94506123dc565b8093505050505b919050565b6001816000016000828254019250508190555050565b600081600001549050919050565b6124d58282604051806020016040528060008152506126ee565b5050565b6124e282611b57565b612521576040517f08c379a000000000000000000000000000000000000000000000000000000000815260040161251890613589565b60405180910390fd5b80601060008481526020019081526020016000209080519060200190612548929190612946565b505050565b505050565b505050565b60006125788473ffffffffffffffffffffffffffffffffffffffff16612749565b156126e1578373ffffffffffffffffffffffffffffffffffffffff1663150b7a026125a1611bc3565b8786866040518563ffffffff1660e01b81526004016125c394939291906132d5565b602060405180830381600087803b1580156125dd57600080fd5b505af192505050801561260e57506040513d601f19601f8201168201806040525081019061260b9190612d1b565b60015b612691573d806000811461263e576040519150601f19603f3d011682016040523d82523d6000602084013e612643565b606091505b50600081511415612689576040517f08c379a0000000000000000000000000000000000000000000000000000000008152600401612680906133e9565b60405180910390fd5b805181602001fd5b63150b7a0260e01b7bffffffffffffffffffffffffffffffffffffffffffffffffffffffff1916817bffffffffffffffffffffffffffffffffffffffffffffffffffffffff1916149150506126e6565b600190505b949350505050565b6126f8838361276c565b6127056000848484612557565b612744576040517f08c379a000000000000000000000000000000000000000000000000000000000815260040161273b906133e9565b60405180910390fd5b505050565b6000808273ffffffffffffffffffffffffffffffffffffffff163b119050919050565b600073ffffffffffffffffffffffffffffffffffffffff168273ffffffffffffffffffffffffffffffffffffffff1614156127dc576040517f08c379a00000000000000000000000000000000000000000000000000000000081526004016127d390613549565b60405180910390fd5b6127e581611b57565b15612825576040517f08c379a000000000000000000000000000000000000000000000000000000000815260040161281c90613449565b60405180910390fd5b6128316000838361254d565b6001600360008473ffffffffffffffffffffffffffffffffffffffff1673ffffffffffffffffffffffffffffffffffffffff16815260200190815260200160002060008282546128819190613798565b92505081905550816002600083815260200190815260200160002060006101000a81548173ffffffffffffffffffffffffffffffffffffffff021916908373ffffffffffffffffffffffffffffffffffffffff160217905550808273ffffffffffffffffffffffffffffffffffffffff16600073ffffffffffffffffffffffffffffffffffffffff167fddf252ad1be2c89b69c2b068fc378daa952ba7f163c4a11628f55a4df523b3ef60405160405180910390a461294260008383612552565b5050565b82805461295290613909565b90600052602060002090601f01602090048101928261297457600085556129bb565b82601f1061298d57805160ff19168380011785556129bb565b828001600101855582156129bb579182015b828111156129ba57825182559160200191906001019061299f565b5b5090506129c891906129cc565b5090565b5b808211156129e55760008160009055506001016129cd565b5090565b60006129fc6129f7846136a9565b613684565b905082815260208101848484011115612a1457600080fd5b612a1f8482856138c7565b509392505050565b6000612a3a612a35846136da565b613684565b905082815260208101848484011115612a5257600080fd5b612a5d8482856138c7565b509392505050565b600081359050612a7481614099565b92915050565b600081359050612a89816140b0565b92915050565b600081359050612a9e816140c7565b92915050565b600081519050612ab3816140c7565b92915050565b600082601f830112612aca57600080fd5b8135612ada8482602086016129e9565b91505092915050565b600082601f830112612af457600080fd5b8135612b04848260208601612a27565b91505092915050565b600081359050612b1c816140de565b92915050565b600060208284031215612b3457600080fd5b6000612b4284828501612a65565b91505092915050565b60008060408385031215612b5e57600080fd5b6000612b6c85828601612a65565b9250506020612b7d85828601612a65565b9150509250929050565b600080600060608486031215612b9c57600080fd5b6000612baa86828701612a65565b9350506020612bbb86828701612a65565b9250506040612bcc86828701612b0d565b9150509250925092565b60008060008060808587031215612bec57600080fd5b6000612bfa87828801612a65565b9450506020612c0b87828801612a65565b9350506040612c1c87828801612b0d565b925050606085013567ffffffffffffffff811115612c3957600080fd5b612c4587828801612ab9565b91505092959194509250565b60008060408385031215612c6457600080fd5b6000612c7285828601612a65565b9250506020612c8385828601612a7a565b9150509250929050565b60008060408385031215612ca057600080fd5b6000612cae85828601612a65565b9250506020612cbf85828601612b0d565b9150509250929050565b600060208284031215612cdb57600080fd5b6000612ce984828501612a7a565b91505092915050565b600060208284031215612d0457600080fd5b6000612d1284828501612a8f565b91505092915050565b600060208284031215612d2d57600080fd5b6000612d3b84828501612aa4565b91505092915050565b600060208284031215612d5657600080fd5b600082013567ffffffffffffffff811115612d7057600080fd5b612d7c84828501612ae3565b91505092915050565b60008060408385031215612d9857600080fd5b600083013567ffffffffffffffff811115612db257600080fd5b612dbe85828601612ae3565b9250506020612dcf85828601612b0d565b9150509250929050565b600060208284031215612deb57600080fd5b6000612df984828501612b0d565b91505092915050565b6000612e0e8383612ee2565b905092915050565b612e1f81613853565b82525050565b6000612e308261371b565b612e3a8185613749565b935083602082028501612e4c8561370b565b8060005b85811015612e885784840389528151612e698582612e02565b9450612e748361373c565b925060208a01995050600181019050612e50565b50829750879550505050505092915050565b612ea381613865565b82525050565b6000612eb482613726565b612ebe818561375a565b9350612ece8185602086016138d6565b612ed781613aa2565b840191505092915050565b6000612eed82613731565b612ef7818561376b565b9350612f078185602086016138d6565b612f1081613aa2565b840191505092915050565b6000612f2682613731565b612f30818561377c565b9350612f408185602086016138d6565b612f4981613aa2565b840191505092915050565b6000612f5f82613731565b612f69818561378d565b9350612f798185602086016138d6565b80840191505092915050565b6000612f92601a8361377c565b9150612f9d82613ab3565b602082019050919050565b6000612fb5601b8361377c565b9150612fc082613adc565b602082019050919050565b6000612fd860328361377c565b9150612fe382613b05565b604082019050919050565b6000612ffb60268361377c565b915061300682613b54565b604082019050919050565b600061301e60258361377c565b915061302982613ba3565b604082019050919050565b6000613041601c8361377c565b915061304c82613bf2565b602082019050919050565b600061306460248361377c565b915061306f82613c1b565b604082019050919050565b600061308760198361377c565b915061309282613c6a565b602082019050919050565b60006130aa602c8361377c565b91506130b582613c93565b604082019050919050565b60006130cd60228361377c565b91506130d882613ce2565b604082019050919050565b60006130f060388361377c565b91506130fb82613d31565b604082019050919050565b6000613113602a8361377c565b915061311e82613d80565b604082019050919050565b600061313660298361377c565b915061314182613dcf565b604082019050919050565b600061315960208361377c565b915061316482613e1e565b602082019050919050565b600061317c602c8361377c565b915061318782613e47565b604082019050919050565b600061319f602c8361377c565b91506131aa82613e96565b604082019050919050565b60006131c260208361377c565b91506131cd82613ee5565b602082019050919050565b60006131e5602f8361377c565b91506131f082613f0e565b604082019050919050565b600061320860218361377c565b915061321382613f5d565b604082019050919050565b600061322b60318361377c565b915061323682613fac565b604082019050919050565b600061324e60228361377c565b915061325982613ffb565b604082019050919050565b600061327160288361377c565b915061327c8261404a565b604082019050919050565b613290816138bd565b82525050565b60006132a28285612f54565b91506132ae8284612f54565b91508190509392505050565b60006020820190506132cf6000830184612e16565b92915050565b60006080820190506132ea6000830187612e16565b6132f76020830186612e16565b6133046040830185613287565b81810360608301526133168184612ea9565b905095945050505050565b60006040820190506133366000830185612e16565b6133436020830184613287565b9392505050565b600060208201905081810360008301526133648184612e25565b905092915050565b60006020820190506133816000830184612e9a565b92915050565b600060208201905081810360008301526133a18184612f1b565b905092915050565b600060208201905081810360008301526133c281612f85565b9050919050565b600060208201905081810360008301526133e281612fa8565b9050919050565b6000602082019050818103600083015261340281612fcb565b9050919050565b6000602082019050818103600083015261342281612fee565b9050919050565b6000602082019050818103600083015261344281613011565b9050919050565b6000602082019050818103600083015261346281613034565b9050919050565b6000602082019050818103600083015261348281613057565b9050919050565b600060208201905081810360008301526134a28161307a565b9050919050565b600060208201905081810360008301526134c28161309d565b9050919050565b600060208201905081810360008301526134e2816130c0565b9050919050565b60006020820190508181036000830152613502816130e3565b9050919050565b6000602082019050818103600083015261352281613106565b9050919050565b6000602082019050818103600083015261354281613129565b9050919050565b600060208201905081810360008301526135628161314c565b9050919050565b600060208201905081810360008301526135828161316f565b9050919050565b600060208201905081810360008301526135a281613192565b9050919050565b600060208201905081810360008301526135c2816131b5565b9050919050565b600060208201905081810360008301526135e2816131d8565b9050919050565b60006020820190508181036000830152613602816131fb565b9050919050565b600060208201905081810360008301526136228161321e565b9050919050565b6000602082019050818103600083015261364281613241565b9050919050565b6000602082019050818103600083015261366281613264565b9050919050565b600060208201905061367e6000830184613287565b92915050565b600061368e61369f565b905061369a828261393b565b919050565b6000604051905090565b600067ffffffffffffffff8211156136c4576136c3613a73565b5b6136cd82613aa2565b9050602081019050919050565b600067ffffffffffffffff8211156136f5576136f4613a73565b5b6136fe82613aa2565b9050602081019050919050565b6000819050602082019050919050565b600081519050919050565b600081519050919050565b600081519050919050565b6000602082019050919050565b600082825260208201905092915050565b600082825260208201905092915050565b600082825260208201905092915050565b600082825260208201905092915050565b600081905092915050565b60006137a3826138bd565b91506137ae836138bd565b9250827fffffffffffffffffffffffffffffffffffffffffffffffffffffffffffffffff038211156137e3576137e26139e6565b5b828201905092915050565b60006137f9826138bd565b9150613804836138bd565b92508261381457613813613a15565b5b828204905092915050565b600061382a826138bd565b9150613835836138bd565b925082821015613848576138476139e6565b5b828203905092915050565b600061385e8261389d565b9050919050565b60008115159050919050565b60007fffffffff0000000000000000000000000000000000000000000000000000000082169050919050565b600073ffffffffffffffffffffffffffffffffffffffff82169050919050565b6000819050919050565b82818337600083830152505050565b60005b838110156138f45780820151818401526020810190506138d9565b83811115613903576000848401525b50505050565b6000600282049050600182168061392157607f821691505b6020821081141561393557613934613a44565b5b50919050565b61394482613aa2565b810181811067ffffffffffffffff8211171561396357613962613a73565b5b80604052505050565b6000613977826138bd565b91507fffffffffffffffffffffffffffffffffffffffffffffffffffffffffffffffff8214156139aa576139a96139e6565b5b600182019050919050565b60006139c0826138bd565b91506139cb836138bd565b9250826139db576139da613a15565b5b828206905092915050565b7f4e487b7100000000000000000000000000000000000000000000000000000000600052601160045260246000fd5b7f4e487b7100000000000000000000000000000000000000000000000000000000600052601260045260246000fd5b7f4e487b7100000000000000000000000000000000000000000000000000000000600052602260045260246000fd5b7f4e487b7100000000000000000000000000000000000000000000000000000000600052604160045260246000fd5b6000601f19601f8301169050919050565b7f557365722063616e6e6f74206d696e74206d6f7265204e465473000000000000600082015250565b7f5075626c6963206d696e74696e67206e6f7420656e61626c65642e0000000000600082015250565b7f4552433732313a207472616e7366657220746f206e6f6e20455243373231526560008201527f63656976657220696d706c656d656e7465720000000000000000000000000000602082015250565b7f4f776e61626c653a206e6577206f776e657220697320746865207a65726f206160008201527f6464726573730000000000000000000000000000000000000000000000000000602082015250565b7f4552433732313a207472616e736665722066726f6d20696e636f72726563742060008201527f6f776e6572000000000000000000000000000000000000000000000000000000602082015250565b7f4552433732313a20746f6b656e20616c7265616479206d696e74656400000000600082015250565b7f4552433732313a207472616e7366657220746f20746865207a65726f2061646460008201527f7265737300000000000000000000000000000000000000000000000000000000602082015250565b7f4552433732313a20617070726f766520746f2063616c6c657200000000000000600082015250565b7f4552433732313a206f70657261746f7220717565727920666f72206e6f6e657860008201527f697374656e7420746f6b656e0000000000000000000000000000000000000000602082015250565b7f54686520626f737320686173206e6f74206265656e206465666561746564207960008201527f6574000000000000000000000000000000000000000000000000000000000000602082015250565b7f4552433732313a20617070726f76652063616c6c6572206973206e6f74206f7760008201527f6e6572206e6f7220617070726f76656420666f7220616c6c0000000000000000602082015250565b7f4552433732313a2062616c616e636520717565727920666f7220746865207a6560008201527f726f206164647265737300000000000000000000000000000000000000000000602082015250565b7f4552433732313a206f776e657220717565727920666f72206e6f6e657869737460008201527f656e7420746f6b656e0000000000000000000000000000000000000000000000602082015250565b7f4552433732313a206d696e7420746f20746865207a65726f2061646472657373600082015250565b7f4552433732313a20617070726f76656420717565727920666f72206e6f6e657860008201527f697374656e7420746f6b656e0000000000000000000000000000000000000000602082015250565b7f4552433732314d657461646174613a2055524920736574206f66206e6f6e657860008201527f697374656e7420746f6b656e0000000000000000000000000000000000000000602082015250565b7f4f776e61626c653a2063616c6c6572206973206e6f7420746865206f776e6572600082015250565b7f4552433732314d657461646174613a2055524920717565727920666f72206e6f60008201527f6e6578697374656e7420746f6b656e0000000000000000000000000000000000602082015250565b7f4552433732313a20617070726f76616c20746f2063757272656e74206f776e6560008201527f7200000000000000000000000000000000000000000000000000000000000000602082015250565b7f4552433732313a207472616e736665722063616c6c6572206973206e6f74206f60008201527f776e6572206e6f7220617070726f766564000000000000000000000000000000602082015250565b7f54686520626f73732068617320616c7265616479206265656e2064656665617460008201527f6564000000000000000000000000000000000000000000000000000000000000602082015250565b7f596f7520646964206e6f7420726561636820746865206e65656465642066656560008201527f20746f206d696e74000000000000000000000000000000000000000000000000602082015250565b6140a281613853565b81146140ad57600080fd5b50565b6140b981613865565b81146140c457600080fd5b50565b6140d081613871565b81146140db57600080fd5b50565b6140e7816138bd565b81146140f257600080fd5b5056fea2646970667358221220ddb7fc256116f20a8b1bbebeb5b0691b1c5d6a91221a6274a964e1be1251544464736f6c63430008040033",
  "linkReferences": {},
  "deployedLinkReferences": {}
}