{
  "_format": "hh-sol-artifact-1",
  "contractName": "NarutoNFT",
  "sourceName": "contracts/NarutoNFT.sol",
  "abi": [
    {
      "inputs": [],
      "stateMutability": "payable",
      "type": "constructor"
    },
    {
      "anonymous": false,
      "inputs": [
        {
          "indexed": true,
          "internalType": "address",
          "name": "owner",
          "type": "address"
        },
        {
          "indexed": true,
          "internalType": "address",
          "name": "approved",
          "type": "address"
        },
        {
          "indexed": true,
          "internalType": "uint256",
          "name": "tokenId",
          "type": "uint256"
        }
      ],
      "name": "Approval",
      "type": "event"
    },
    {
      "anonymous": false,
      "inputs": [
        {
          "indexed": true,
          "internalType": "address",
          "name": "owner",
          "type": "address"
        },
        {
          "indexed": true,
          "internalType": "address",
          "name": "operator",
          "type": "address"
        },
        {
          "indexed": false,
          "internalType": "bool",
          "name": "approved",
          "type": "bool"
        }
      ],
      "name": "ApprovalForAll",
      "type": "event"
    },
    {
      "anonymous": false,
      "inputs": [
        {
          "indexed": true,
          "internalType": "address",
          "name": "previousOwner",
          "type": "address"
        },
        {
          "indexed": true,
          "internalType": "address",
          "name": "newOwner",
          "type": "address"
        }
      ],
      "name": "OwnershipTransferred",
      "type": "event"
    },
    {
      "anonymous": false,
      "inputs": [
        {
          "indexed": true,
          "internalType": "address",
          "name": "from",
          "type": "address"
        },
        {
          "indexed": true,
          "internalType": "address",
          "name": "to",
          "type": "address"
        },
        {
          "indexed": true,
          "internalType": "uint256",
          "name": "tokenId",
          "type": "uint256"
        }
      ],
      "name": "Transfer",
      "type": "event"
    },
    {
      "inputs": [
        {
          "internalType": "string",
          "name": "_tokenURI",
          "type": "string"
        },
        {
          "internalType": "uint256",
          "name": "_bossHP",
          "type": "uint256"
        }
      ],
      "name": "addBoss",
      "outputs": [
        {
          "internalType": "uint256",
          "name": "",
          "type": "uint256"
        }
      ],
      "stateMutability": "nonpayable",
      "type": "function"
    },
    {
      "inputs": [
        {
          "internalType": "address",
          "name": "to",
          "type": "address"
        },
        {
          "internalType": "uint256",
          "name": "tokenId",
          "type": "uint256"
        }
      ],
      "name": "approve",
      "outputs": [],
      "stateMutability": "nonpayable",
      "type": "function"
    },
    {
      "inputs": [
        {
          "internalType": "uint256",
          "name": "damage",
          "type": "uint256"
        }
      ],
      "name": "attack",
      "outputs": [],
      "stateMutability": "payable",
      "type": "function"
    },
    {
      "inputs": [
        {
          "internalType": "address",
          "name": "owner",
          "type": "address"
        }
      ],
      "name": "balanceOf",
      "outputs": [
        {
          "internalType": "uint256",
          "name": "",
          "type": "uint256"
        }
      ],
      "stateMutability": "view",
      "type": "function"
    },
    {
      "inputs": [],
      "name": "bossHP",
      "outputs": [
        {
          "internalType": "uint256",
          "name": "",
          "type": "uint256"
        }
      ],
      "stateMutability": "view",
      "type": "function"
    },
    {
      "inputs": [],
      "name": "currentBossTokenURI",
      "outputs": [
        {
          "internalType": "string",
          "name": "",
          "type": "string"
        }
      ],
      "stateMutability": "view",
      "type": "function"
    },
    {
      "inputs": [],
      "name": "deleteBoss",
      "outputs": [],
      "stateMutability": "nonpayable",
      "type": "function"
    },
    {
      "inputs": [
        {
          "internalType": "uint256",
          "name": "tokenId",
          "type": "uint256"
        }
      ],
      "name": "getApproved",
      "outputs": [
        {
          "internalType": "address",
          "name": "",
          "type": "address"
        }
      ],
      "stateMutability": "view",
      "type": "function"
    },
    {
      "inputs": [],
      "name": "getBossURI",
      "outputs": [
        {
          "internalType": "string",
          "name": "",
          "type": "string"
        }
      ],
      "stateMutability": "view",
      "type": "function"
    },
    {
      "inputs": [
        {
          "internalType": "address",
          "name": "_accountAddress",
          "type": "address"
        }
      ],
      "name": "getWalletMints",
      "outputs": [
        {
          "internalType": "string[]",
          "name": "",
          "type": "string[]"
        }
      ],
      "stateMutability": "view",
      "type": "function"
    },
    {
      "inputs": [
        {
          "internalType": "address",
          "name": "owner",
          "type": "address"
        },
        {
          "internalType": "address",
          "name": "operator",
          "type": "address"
        }
      ],
      "name": "isApprovedForAll",
      "outputs": [
        {
          "internalType": "bool",
          "name": "",
          "type": "bool"
        }
      ],
      "stateMutability": "view",
      "type": "function"
    },
    {
      "inputs": [],
      "name": "isPublicMintEnabled",
      "outputs": [
        {
          "internalType": "bool",
          "name": "",
          "type": "bool"
        }
      ],
      "stateMutability": "view",
      "type": "function"
    },
    {
      "inputs": [],
      "name": "maxPerWallet",
      "outputs": [
        {
          "internalType": "uint256",
          "name": "",
          "type": "uint256"
        }
      ],
      "stateMutability": "view",
      "type": "function"
    },
    {
      "inputs": [
        {
          "internalType": "string",
          "name": "_tokenURI",
          "type": "string"
        }
      ],
      "name": "mint",
      "outputs": [
        {
          "internalType": "uint256",
          "name": "",
          "type": "uint256"
        }
      ],
      "stateMutability": "payable",
      "type": "function"
    },
    {
      "inputs": [],
      "name": "mintPrice",
      "outputs": [
        {
          "internalType": "uint256",
          "name": "",
          "type": "uint256"
        }
      ],
      "stateMutability": "view",
      "type": "function"
    },
    {
      "inputs": [],
      "name": "name",
      "outputs": [
        {
          "internalType": "string",
          "name": "",
          "type": "string"
        }
      ],
      "stateMutability": "view",
      "type": "function"
    },
    {
      "inputs": [],
      "name": "owner",
      "outputs": [
        {
          "internalType": "address",
          "name": "",
          "type": "address"
        }
      ],
      "stateMutability": "view",
      "type": "function"
    },
    {
      "inputs": [
        {
          "internalType": "uint256",
          "name": "tokenId",
          "type": "uint256"
        }
      ],
      "name": "ownerOf",
      "outputs": [
        {
          "internalType": "address",
          "name": "",
          "type": "address"
        }
      ],
      "stateMutability": "view",
      "type": "function"
    },
    {
      "inputs": [],
      "name": "renounceOwnership",
      "outputs": [],
      "stateMutability": "nonpayable",
      "type": "function"
    },
    {
      "inputs": [
        {
          "internalType": "address",
          "name": "from",
          "type": "address"
        },
        {
          "internalType": "address",
          "name": "to",
          "type": "address"
        },
        {
          "internalType": "uint256",
          "name": "tokenId",
          "type": "uint256"
        }
      ],
      "name": "safeTransferFrom",
      "outputs": [],
      "stateMutability": "nonpayable",
      "type": "function"
    },
    {
      "inputs": [
        {
          "internalType": "address",
          "name": "from",
          "type": "address"
        },
        {
          "internalType": "address",
          "name": "to",
          "type": "address"
        },
        {
          "internalType": "uint256",
          "name": "tokenId",
          "type": "uint256"
        },
        {
          "internalType": "bytes",
          "name": "_data",
          "type": "bytes"
        }
      ],
      "name": "safeTransferFrom",
      "outputs": [],
      "stateMutability": "nonpayable",
      "type": "function"
    },
    {
      "inputs": [
        {
          "internalType": "address",
          "name": "operator",
          "type": "address"
        },
        {
          "internalType": "bool",
          "name": "approved",
          "type": "bool"
        }
      ],
      "name": "setApprovalForAll",
      "outputs": [],
      "stateMutability": "nonpayable",
      "type": "function"
    },
    {
      "inputs": [
        {
          "internalType": "string",
          "name": "baseURI_",
          "type": "string"
        }
      ],
      "name": "setBaseURI",
      "outputs": [],
      "stateMutability": "nonpayable",
      "type": "function"
    },
    {
      "inputs": [
        {
          "internalType": "bool",
          "name": "_isPublicMintEnabled",
          "type": "bool"
        }
      ],
      "name": "setSetIsPublicMintEnabled",
      "outputs": [],
      "stateMutability": "nonpayable",
      "type": "function"
    },
    {
      "inputs": [
        {
          "internalType": "bytes4",
          "name": "interfaceId",
          "type": "bytes4"
        }
      ],
      "name": "supportsInterface",
      "outputs": [
        {
          "internalType": "bool",
          "name": "",
          "type": "bool"
        }
      ],
      "stateMutability": "view",
      "type": "function"
    },
    {
      "inputs": [],
      "name": "symbol",
      "outputs": [
        {
          "internalType": "string",
          "name": "",
          "type": "string"
        }
      ],
      "stateMutability": "view",
      "type": "function"
    },
    {
      "inputs": [
        {
          "internalType": "uint256",
          "name": "tokenId",
          "type": "uint256"
        }
      ],
      "name": "tokenURI",
      "outputs": [
        {
          "internalType": "string",
          "name": "",
          "type": "string"
        }
      ],
      "stateMutability": "view",
      "type": "function"
    },
    {
      "inputs": [],
      "name": "totalSupply",
      "outputs": [
        {
          "internalType": "uint256",
          "name": "",
          "type": "uint256"
        }
      ],
      "stateMutability": "view",
      "type": "function"
    },
    {
      "inputs": [
        {
          "internalType": "address",
          "name": "from",
          "type": "address"
        },
        {
          "internalType": "address",
          "name": "to",
          "type": "address"
        },
        {
          "internalType": "uint256",
          "name": "tokenId",
          "type": "uint256"
        }
      ],
      "name": "transferFrom",
      "outputs": [],
      "stateMutability": "nonpayable",
      "type": "function"
    },
    {
      "inputs": [
        {
          "internalType": "address",
          "name": "newOwner",
          "type": "address"
        }
      ],
      "name": "transferOwnership",
      "outputs": [],
      "stateMutability": "nonpayable",
      "type": "function"
    },
    {
      "inputs": [
        {
          "internalType": "address",
          "name": "",
          "type": "address"
        },
        {
          "internalType": "uint256",
          "name": "",
          "type": "uint256"
        }
      ],
      "name": "walletMints",
      "outputs": [
        {
          "internalType": "string",
          "name": "",
          "type": "string"
        }
      ],
      "stateMutability": "view",
      "type": "function"
    },
    {
      "inputs": [],
      "name": "withdraw",
      "outputs": [],
      "stateMutability": "payable",
      "type": "function"
    }
  ],
  "bytecode": "0x60806040526040518060400160405280600981526020017f4e617275746f4e465400000000000000000000000000000000000000000000008152506040518060400160405280600381526020017f4e61720000000000000000000000000000000000000000000000000000000000815250816000908051906020019062000088929190620001f7565b508060019080519060200190620000a1929190620001f7565b505050620000c4620000b86200012960201b60201c565b6200013160201b60201c565b66071afd498d00006009819055506032600a819055506003600b8190555033600e60006101000a81548173ffffffffffffffffffffffffffffffffffffffff021916908373ffffffffffffffffffffffffffffffffffffffff1602179055506200030c565b600033905090565b6000600660009054906101000a900473ffffffffffffffffffffffffffffffffffffffff16905081600660006101000a81548173ffffffffffffffffffffffffffffffffffffffff021916908373ffffffffffffffffffffffffffffffffffffffff1602179055508173ffffffffffffffffffffffffffffffffffffffff168173ffffffffffffffffffffffffffffffffffffffff167f8be0079c531659141344cd1fd0a4f28419497f9722a3daafe3b4186f6b6457e060405160405180910390a35050565b8280546200020590620002a7565b90600052602060002090601f01602090048101928262000229576000855562000275565b82601f106200024457805160ff191683800117855562000275565b8280016001018555821562000275579182015b828111156200027457825182559160200191906001019062000257565b5b50905062000284919062000288565b5090565b5b80821115620002a357600081600090555060010162000289565b5090565b60006002820490506001821680620002c057607f821691505b60208210811415620002d757620002d6620002dd565b5b50919050565b7f4e487b7100000000000000000000000000000000000000000000000000000000600052602260045260246000fd5b6140c7806200031c6000396000f3fe6080604052600436106101e35760003560e01c806370a0823111610102578063b8f1cfc211610095578063e2a65e1311610064578063e2a65e13146106a7578063e985e9c5146106e4578063e9e3a53e14610721578063f2fde38b1461075e576101e3565b8063b8f1cfc2146105f8578063c87b56dd1461060f578063c8c643d51461064c578063d85d3d2714610677576101e3565b806395d89b41116100d157806395d89b411461053e578063a22cb46514610569578063a744685f14610592578063b88d4fde146105cf576101e3565b806370a0823114610496578063715018a6146104d3578063865bbebb146104ea5780638da5cb5b14610513576101e3565b80633ccfd60b1161017a57806355f804b31161014957806355f804b3146103e95780636352211e1461041257806364dd891a1461044f5780636817c76c1461046b576101e3565b80633ccfd60b1461036057806342842e0e1461036a578063453c2310146103935780634b3e0509146103be576101e3565b8063095ea7b3116101b6578063095ea7b3146102b857806318160ddd146102e15780631fb19e091461030c57806323b872dd14610337576101e3565b80630116bc2d146101e857806301ffc9a71461021357806306fdde0314610250578063081812fc1461027b575b600080fd5b3480156101f457600080fd5b506101fd610787565b60405161020a9190613308565b60405180910390f35b34801561021f57600080fd5b5061023a60048036038101906102359190612cb7565b61079a565b6040516102479190613308565b60405180910390f35b34801561025c57600080fd5b5061026561087c565b6040516102729190613323565b60405180910390f35b34801561028757600080fd5b506102a2600480360381019061029d9190612d9e565b61090e565b6040516102af919061327f565b60405180910390f35b3480156102c457600080fd5b506102df60048036038101906102da9190612c52565b610993565b005b3480156102ed57600080fd5b506102f6610aab565b6040516103039190613605565b60405180910390f35b34801561031857600080fd5b50610321610ab1565b60405161032e9190613323565b60405180910390f35b34801561034357600080fd5b5061035e60048036038101906103599190612b4c565b610b3f565b005b610368610b9f565b005b34801561037657600080fd5b50610391600480360381019061038c9190612b4c565b610c64565b005b34801561039f57600080fd5b506103a8610c84565b6040516103b59190613605565b60405180910390f35b3480156103ca57600080fd5b506103d3610c8a565b6040516103e09190613605565b60405180910390f35b3480156103f557600080fd5b50610410600480360381019061040b9190612d09565b610c90565b005b34801561041e57600080fd5b5061043960048036038101906104349190612d9e565b610d26565b604051610446919061327f565b60405180910390f35b61046960048036038101906104649190612d9e565b610dd8565b005b34801561047757600080fd5b50610480610e6a565b60405161048d9190613605565b60405180910390f35b3480156104a257600080fd5b506104bd60048036038101906104b89190612ae7565b610e70565b6040516104ca9190613605565b60405180910390f35b3480156104df57600080fd5b506104e8610f28565b005b3480156104f657600080fd5b50610511600480360381019061050c9190612c8e565b610fb0565b005b34801561051f57600080fd5b50610528611049565b604051610535919061327f565b60405180910390f35b34801561054a57600080fd5b50610553611073565b6040516105609190613323565b60405180910390f35b34801561057557600080fd5b50610590600480360381019061058b9190612c16565b611105565b005b34801561059e57600080fd5b506105b960048036038101906105b49190612c52565b61111b565b6040516105c69190613323565b60405180910390f35b3480156105db57600080fd5b506105f660048036038101906105f19190612b9b565b6111d4565b005b34801561060457600080fd5b5061060d611236565b005b34801561061b57600080fd5b5061063660048036038101906106319190612d9e565b6112e2565b6040516106439190613323565b60405180910390f35b34801561065857600080fd5b50610661611455565b60405161066e9190613323565b60405180910390f35b610691600480360381019061068c9190612d09565b6114e7565b60405161069e9190613605565b60405180910390f35b3480156106b357600080fd5b506106ce60048036038101906106c99190612d4a565b6116a5565b6040516106db9190613605565b60405180910390f35b3480156106f057600080fd5b5061070b60048036038101906107069190612b10565b61180e565b6040516107189190613308565b60405180910390f35b34801561072d57600080fd5b5061074860048036038101906107439190612ae7565b6118a2565b60405161075591906132e6565b60405180910390f35b34801561076a57600080fd5b5061078560048036038101906107809190612ae7565b6119ba565b005b600c60009054906101000a900460ff1681565b60007f80ac58cd000000000000000000000000000000000000000000000000000000007bffffffffffffffffffffffffffffffffffffffffffffffffffffffff1916827bffffffffffffffffffffffffffffffffffffffffffffffffffffffff1916148061086557507f5b5e139f000000000000000000000000000000000000000000000000000000007bffffffffffffffffffffffffffffffffffffffffffffffffffffffff1916827bffffffffffffffffffffffffffffffffffffffffffffffffffffffff1916145b80610875575061087482611ab2565b5b9050919050565b60606000805461088b906138a5565b80601f01602080910402602001604051908101604052809291908181526020018280546108b7906138a5565b80156109045780601f106108d957610100808354040283529160200191610904565b820191906000526020600020905b8154815290600101906020018083116108e757829003601f168201915b5050505050905090565b600061091982611b1c565b610958576040517f08c379a000000000000000000000000000000000000000000000000000000000815260040161094f90613505565b60405180910390fd5b6004600083815260200190815260200160002060009054906101000a900473ffffffffffffffffffffffffffffffffffffffff169050919050565b600061099e82610d26565b90508073ffffffffffffffffffffffffffffffffffffffff168373ffffffffffffffffffffffffffffffffffffffff161415610a0f576040517f08c379a0000000000000000000000000000000000000000000000000000000008152600401610a0690613585565b60405180910390fd5b8073ffffffffffffffffffffffffffffffffffffffff16610a2e611b88565b73ffffffffffffffffffffffffffffffffffffffff161480610a5d5750610a5c81610a57611b88565b61180e565b5b610a9c576040517f08c379a0000000000000000000000000000000000000000000000000000000008152600401610a9390613485565b60405180910390fd5b610aa68383611b90565b505050565b600a5481565b60128054610abe906138a5565b80601f0160208091040260200160405190810160405280929190818152602001828054610aea906138a5565b8015610b375780601f10610b0c57610100808354040283529160200191610b37565b820191906000526020600020905b815481529060010190602001808311610b1a57829003601f168201915b505050505081565b610b50610b4a611b88565b82611c49565b610b8f576040517f08c379a0000000000000000000000000000000000000000000000000000000008152600401610b86906135a5565b60405180910390fd5b610b9a838383611d27565b505050565b610ba7611b88565b73ffffffffffffffffffffffffffffffffffffffff16610bc5611049565b73ffffffffffffffffffffffffffffffffffffffff1614610c1b576040517f08c379a0000000000000000000000000000000000000000000000000000000008152600401610c1290613545565b60405180910390fd5b3373ffffffffffffffffffffffffffffffffffffffff166108fc479081150290604051600060405180830381858888f19350505050158015610c61573d6000803e3d6000fd5b50565b610c7f838383604051806020016040528060008152506111d4565b505050565b600b5481565b60115481565b610c98611b88565b73ffffffffffffffffffffffffffffffffffffffff16610cb6611049565b73ffffffffffffffffffffffffffffffffffffffff1614610d0c576040517f08c379a0000000000000000000000000000000000000000000000000000000008152600401610d0390613545565b60405180910390fd5b8060089080519060200190610d2292919061290b565b5050565b6000806002600084815260200190815260200160002060009054906101000a900473ffffffffffffffffffffffffffffffffffffffff169050600073ffffffffffffffffffffffffffffffffffffffff168173ffffffffffffffffffffffffffffffffffffffff161415610dcf576040517f08c379a0000000000000000000000000000000000000000000000000000000008152600401610dc6906134c5565b60405180910390fd5b80915050919050565b600060115411610e1d576040517f08c379a0000000000000000000000000000000000000000000000000000000008152600401610e14906135c5565b60405180910390fd5b8060116000828254610e2f91906137bb565b92505081905550600060115411610e67576040518060200160405280600081525060129080519060200190610e6592919061290b565b505b50565b60095481565b60008073ffffffffffffffffffffffffffffffffffffffff168273ffffffffffffffffffffffffffffffffffffffff161415610ee1576040517f08c379a0000000000000000000000000000000000000000000000000000000008152600401610ed8906134a5565b60405180910390fd5b600360008373ffffffffffffffffffffffffffffffffffffffff1673ffffffffffffffffffffffffffffffffffffffff168152602001908152602001600020549050919050565b610f30611b88565b73ffffffffffffffffffffffffffffffffffffffff16610f4e611049565b73ffffffffffffffffffffffffffffffffffffffff1614610fa4576040517f08c379a0000000000000000000000000000000000000000000000000000000008152600401610f9b90613545565b60405180910390fd5b610fae6000611f8e565b565b610fb8611b88565b73ffffffffffffffffffffffffffffffffffffffff16610fd6611049565b73ffffffffffffffffffffffffffffffffffffffff161461102c576040517f08c379a000000000000000000000000000000000000000000000000000000000815260040161102390613545565b60405180910390fd5b80600c60006101000a81548160ff02191690831515021790555050565b6000600660009054906101000a900473ffffffffffffffffffffffffffffffffffffffff16905090565b606060018054611082906138a5565b80601f01602080910402602001604051908101604052809291908181526020018280546110ae906138a5565b80156110fb5780601f106110d0576101008083540402835291602001916110fb565b820191906000526020600020905b8154815290600101906020018083116110de57829003601f168201915b5050505050905090565b611117611110611b88565b8383612054565b5050565b600f602052816000526040600020818154811061113757600080fd5b90600052602060002001600091509150508054611153906138a5565b80601f016020809104026020016040519081016040528092919081815260200182805461117f906138a5565b80156111cc5780601f106111a1576101008083540402835291602001916111cc565b820191906000526020600020905b8154815290600101906020018083116111af57829003601f168201915b505050505081565b6111e56111df611b88565b83611c49565b611224576040517f08c379a000000000000000000000000000000000000000000000000000000000815260040161121b906135a5565b60405180910390fd5b611230848484846121c1565b50505050565b61123e611b88565b73ffffffffffffffffffffffffffffffffffffffff1661125c611049565b73ffffffffffffffffffffffffffffffffffffffff16146112b2576040517f08c379a00000000000000000000000000000000000000000000000000000000081526004016112a990613545565b60405180910390fd5b600060118190555060405180602001604052806000815250601290805190602001906112df92919061290b565b50565b60606112ed82611b1c565b61132c576040517f08c379a000000000000000000000000000000000000000000000000000000000815260040161132390613565565b60405180910390fd5b600060106000848152602001908152602001600020805461134c906138a5565b80601f0160208091040260200160405190810160405280929190818152602001828054611378906138a5565b80156113c55780601f1061139a576101008083540402835291602001916113c5565b820191906000526020600020905b8154815290600101906020018083116113a857829003601f168201915b5050505050905060006113d661221d565b90506000815114156113ec578192505050611450565b60008251111561142157808260405160200161140992919061325b565b60405160208183030381529060405292505050611450565b8061142b856122af565b60405160200161143c92919061325b565b604051602081830303815290604052925050505b919050565b606060128054611464906138a5565b80601f0160208091040260200160405190810160405280929190818152602001828054611490906138a5565b80156114dd5780601f106114b2576101008083540402835291602001916114dd565b820191906000526020600020905b8154815290600101906020018083116114c057829003601f168201915b5050505050905090565b6000600c60009054906101000a900460ff16611538576040517f08c379a000000000000000000000000000000000000000000000000000000000815260040161152f90613365565b60405180910390fd5b600b54600f60003373ffffffffffffffffffffffffffffffffffffffff1673ffffffffffffffffffffffffffffffffffffffff16815260200190815260200160002080549050106115be576040517f08c379a00000000000000000000000000000000000000000000000000000000081526004016115b590613345565b60405180910390fd5b6009543414611602576040517f08c379a00000000000000000000000000000000000000000000000000000000081526004016115f9906135e5565b60405180910390fd5b61160c600761245c565b60006116186007612472565b905082600f60003373ffffffffffffffffffffffffffffffffffffffff1673ffffffffffffffffffffffffffffffffffffffff1681526020019081526020016000206001816001815401808255809150500390600052602060002001908051906020019061168792919061290b565b506116923382612480565b61169c818461249e565b80915050919050565b60006116af611b88565b73ffffffffffffffffffffffffffffffffffffffff166116cd611049565b73ffffffffffffffffffffffffffffffffffffffff1614611723576040517f08c379a000000000000000000000000000000000000000000000000000000000815260040161171a90613545565b60405180910390fd5b60006011541115611769576040517f08c379a000000000000000000000000000000000000000000000000000000000815260040161176090613465565b60405180910390fd5b600060128054611778906138a5565b9050146117ba576040517f08c379a00000000000000000000000000000000000000000000000000000000081526004016117b190613465565b60405180910390fd5b8160118190555082601290805190602001906117d792919061290b565b506117e2600761245c565b60006117ee6007612472565b90506117fa3382612480565b611804818561249e565b8091505092915050565b6000600560008473ffffffffffffffffffffffffffffffffffffffff1673ffffffffffffffffffffffffffffffffffffffff16815260200190815260200160002060008373ffffffffffffffffffffffffffffffffffffffff1673ffffffffffffffffffffffffffffffffffffffff16815260200190815260200160002060009054906101000a900460ff16905092915050565b6060600f60008373ffffffffffffffffffffffffffffffffffffffff1673ffffffffffffffffffffffffffffffffffffffff168152602001908152602001600020805480602002602001604051908101604052809291908181526020016000905b828210156119af578382906000526020600020018054611922906138a5565b80601f016020809104026020016040519081016040528092919081815260200182805461194e906138a5565b801561199b5780601f106119705761010080835404028352916020019161199b565b820191906000526020600020905b81548152906001019060200180831161197e57829003601f168201915b505050505081526020019060010190611903565b505050509050919050565b6119c2611b88565b73ffffffffffffffffffffffffffffffffffffffff166119e0611049565b73ffffffffffffffffffffffffffffffffffffffff1614611a36576040517f08c379a0000000000000000000000000000000000000000000000000000000008152600401611a2d90613545565b60405180910390fd5b600073ffffffffffffffffffffffffffffffffffffffff168173ffffffffffffffffffffffffffffffffffffffff161415611aa6576040517f08c379a0000000000000000000000000000000000000000000000000000000008152600401611a9d906133a5565b60405180910390fd5b611aaf81611f8e565b50565b60007f01ffc9a7000000000000000000000000000000000000000000000000000000007bffffffffffffffffffffffffffffffffffffffffffffffffffffffff1916827bffffffffffffffffffffffffffffffffffffffffffffffffffffffff1916149050919050565b60008073ffffffffffffffffffffffffffffffffffffffff166002600084815260200190815260200160002060009054906101000a900473ffffffffffffffffffffffffffffffffffffffff1673ffffffffffffffffffffffffffffffffffffffff1614159050919050565b600033905090565b816004600083815260200190815260200160002060006101000a81548173ffffffffffffffffffffffffffffffffffffffff021916908373ffffffffffffffffffffffffffffffffffffffff160217905550808273ffffffffffffffffffffffffffffffffffffffff16611c0383610d26565b73ffffffffffffffffffffffffffffffffffffffff167f8c5be1e5ebec7d5bd14f71427d1e84f3dd0314c0f7b2291e5b200ac8c7c3b92560405160405180910390a45050565b6000611c5482611b1c565b611c93576040517f08c379a0000000000000000000000000000000000000000000000000000000008152600401611c8a90613445565b60405180910390fd5b6000611c9e83610d26565b90508073ffffffffffffffffffffffffffffffffffffffff168473ffffffffffffffffffffffffffffffffffffffff161480611ce05750611cdf818561180e565b5b80611d1e57508373ffffffffffffffffffffffffffffffffffffffff16611d068461090e565b73ffffffffffffffffffffffffffffffffffffffff16145b91505092915050565b8273ffffffffffffffffffffffffffffffffffffffff16611d4782610d26565b73ffffffffffffffffffffffffffffffffffffffff1614611d9d576040517f08c379a0000000000000000000000000000000000000000000000000000000008152600401611d94906133c5565b60405180910390fd5b600073ffffffffffffffffffffffffffffffffffffffff168273ffffffffffffffffffffffffffffffffffffffff161415611e0d576040517f08c379a0000000000000000000000000000000000000000000000000000000008152600401611e0490613405565b60405180910390fd5b611e18838383612512565b611e23600082611b90565b6001600360008573ffffffffffffffffffffffffffffffffffffffff1673ffffffffffffffffffffffffffffffffffffffff1681526020019081526020016000206000828254611e7391906137bb565b925050819055506001600360008473ffffffffffffffffffffffffffffffffffffffff1673ffffffffffffffffffffffffffffffffffffffff1681526020019081526020016000206000828254611eca9190613734565b92505081905550816002600083815260200190815260200160002060006101000a81548173ffffffffffffffffffffffffffffffffffffffff021916908373ffffffffffffffffffffffffffffffffffffffff160217905550808273ffffffffffffffffffffffffffffffffffffffff168473ffffffffffffffffffffffffffffffffffffffff167fddf252ad1be2c89b69c2b068fc378daa952ba7f163c4a11628f55a4df523b3ef60405160405180910390a4611f89838383612517565b505050565b6000600660009054906101000a900473ffffffffffffffffffffffffffffffffffffffff16905081600660006101000a81548173ffffffffffffffffffffffffffffffffffffffff021916908373ffffffffffffffffffffffffffffffffffffffff1602179055508173ffffffffffffffffffffffffffffffffffffffff168173ffffffffffffffffffffffffffffffffffffffff167f8be0079c531659141344cd1fd0a4f28419497f9722a3daafe3b4186f6b6457e060405160405180910390a35050565b8173ffffffffffffffffffffffffffffffffffffffff168373ffffffffffffffffffffffffffffffffffffffff1614156120c3576040517f08c379a00000000000000000000000000000000000000000000000000000000081526004016120ba90613425565b60405180910390fd5b80600560008573ffffffffffffffffffffffffffffffffffffffff1673ffffffffffffffffffffffffffffffffffffffff16815260200190815260200160002060008473ffffffffffffffffffffffffffffffffffffffff1673ffffffffffffffffffffffffffffffffffffffff16815260200190815260200160002060006101000a81548160ff0219169083151502179055508173ffffffffffffffffffffffffffffffffffffffff168373ffffffffffffffffffffffffffffffffffffffff167f17307eab39ab6107e8899845ad3d59bd9653f200f220920489ca2b5937696c31836040516121b49190613308565b60405180910390a3505050565b6121cc848484611d27565b6121d88484848461251c565b612217576040517f08c379a000000000000000000000000000000000000000000000000000000000815260040161220e90613385565b60405180910390fd5b50505050565b60606008805461222c906138a5565b80601f0160208091040260200160405190810160405280929190818152602001828054612258906138a5565b80156122a55780601f1061227a576101008083540402835291602001916122a5565b820191906000526020600020905b81548152906001019060200180831161228857829003601f168201915b5050505050905090565b606060008214156122f7576040518060400160405280600181526020017f30000000000000000000000000000000000000000000000000000000000000008152509050612457565b600082905060005b6000821461232957808061231290613908565b915050600a82612322919061378a565b91506122ff565b60008167ffffffffffffffff81111561236b577f4e487b7100000000000000000000000000000000000000000000000000000000600052604160045260246000fd5b6040519080825280601f01601f19166020018201604052801561239d5781602001600182028036833780820191505090505b5090505b60008514612450576001826123b691906137bb565b9150600a856123c59190613951565b60306123d19190613734565b60f81b81838151811061240d577f4e487b7100000000000000000000000000000000000000000000000000000000600052603260045260246000fd5b60200101907effffffffffffffffffffffffffffffffffffffffffffffffffffffffffffff1916908160001a905350600a85612449919061378a565b94506123a1565b8093505050505b919050565b6001816000016000828254019250508190555050565b600081600001549050919050565b61249a8282604051806020016040528060008152506126b3565b5050565b6124a782611b1c565b6124e6576040517f08c379a00000000000000000000000000000000000000000000000000000000081526004016124dd90613525565b60405180910390fd5b8060106000848152602001908152602001600020908051906020019061250d92919061290b565b505050565b505050565b505050565b600061253d8473ffffffffffffffffffffffffffffffffffffffff1661270e565b156126a6578373ffffffffffffffffffffffffffffffffffffffff1663150b7a02612566611b88565b8786866040518563ffffffff1660e01b8152600401612588949392919061329a565b602060405180830381600087803b1580156125a257600080fd5b505af19250505080156125d357506040513d601f19601f820116820180604052508101906125d09190612ce0565b60015b612656573d8060008114612603576040519150601f19603f3d011682016040523d82523d6000602084013e612608565b606091505b5060008151141561264e576040517f08c379a000000000000000000000000000000000000000000000000000000000815260040161264590613385565b60405180910390fd5b805181602001fd5b63150b7a0260e01b7bffffffffffffffffffffffffffffffffffffffffffffffffffffffff1916817bffffffffffffffffffffffffffffffffffffffffffffffffffffffff1916149150506126ab565b600190505b949350505050565b6126bd8383612731565b6126ca600084848461251c565b612709576040517f08c379a000000000000000000000000000000000000000000000000000000000815260040161270090613385565b60405180910390fd5b505050565b6000808273ffffffffffffffffffffffffffffffffffffffff163b119050919050565b600073ffffffffffffffffffffffffffffffffffffffff168273ffffffffffffffffffffffffffffffffffffffff1614156127a1576040517f08c379a0000000000000000000000000000000000000000000000000000000008152600401612798906134e5565b60405180910390fd5b6127aa81611b1c565b156127ea576040517f08c379a00000000000000000000000000000000000000000000000000000000081526004016127e1906133e5565b60405180910390fd5b6127f660008383612512565b6001600360008473ffffffffffffffffffffffffffffffffffffffff1673ffffffffffffffffffffffffffffffffffffffff16815260200190815260200160002060008282546128469190613734565b92505081905550816002600083815260200190815260200160002060006101000a81548173ffffffffffffffffffffffffffffffffffffffff021916908373ffffffffffffffffffffffffffffffffffffffff160217905550808273ffffffffffffffffffffffffffffffffffffffff16600073ffffffffffffffffffffffffffffffffffffffff167fddf252ad1be2c89b69c2b068fc378daa952ba7f163c4a11628f55a4df523b3ef60405160405180910390a461290760008383612517565b5050565b828054612917906138a5565b90600052602060002090601f0160209004810192826129395760008555612980565b82601f1061295257805160ff1916838001178555612980565b82800160010185558215612980579182015b8281111561297f578251825591602001919060010190612964565b5b50905061298d9190612991565b5090565b5b808211156129aa576000816000905550600101612992565b5090565b60006129c16129bc84613645565b613620565b9050828152602081018484840111156129d957600080fd5b6129e4848285613863565b509392505050565b60006129ff6129fa84613676565b613620565b905082815260208101848484011115612a1757600080fd5b612a22848285613863565b509392505050565b600081359050612a3981614035565b92915050565b600081359050612a4e8161404c565b92915050565b600081359050612a6381614063565b92915050565b600081519050612a7881614063565b92915050565b600082601f830112612a8f57600080fd5b8135612a9f8482602086016129ae565b91505092915050565b600082601f830112612ab957600080fd5b8135612ac98482602086016129ec565b91505092915050565b600081359050612ae18161407a565b92915050565b600060208284031215612af957600080fd5b6000612b0784828501612a2a565b91505092915050565b60008060408385031215612b2357600080fd5b6000612b3185828601612a2a565b9250506020612b4285828601612a2a565b9150509250929050565b600080600060608486031215612b6157600080fd5b6000612b6f86828701612a2a565b9350506020612b8086828701612a2a565b9250506040612b9186828701612ad2565b9150509250925092565b60008060008060808587031215612bb157600080fd5b6000612bbf87828801612a2a565b9450506020612bd087828801612a2a565b9350506040612be187828801612ad2565b925050606085013567ffffffffffffffff811115612bfe57600080fd5b612c0a87828801612a7e565b91505092959194509250565b60008060408385031215612c2957600080fd5b6000612c3785828601612a2a565b9250506020612c4885828601612a3f565b9150509250929050565b60008060408385031215612c6557600080fd5b6000612c7385828601612a2a565b9250506020612c8485828601612ad2565b9150509250929050565b600060208284031215612ca057600080fd5b6000612cae84828501612a3f565b91505092915050565b600060208284031215612cc957600080fd5b6000612cd784828501612a54565b91505092915050565b600060208284031215612cf257600080fd5b6000612d0084828501612a69565b91505092915050565b600060208284031215612d1b57600080fd5b600082013567ffffffffffffffff811115612d3557600080fd5b612d4184828501612aa8565b91505092915050565b60008060408385031215612d5d57600080fd5b600083013567ffffffffffffffff811115612d7757600080fd5b612d8385828601612aa8565b9250506020612d9485828601612ad2565b9150509250929050565b600060208284031215612db057600080fd5b6000612dbe84828501612ad2565b91505092915050565b6000612dd38383612ea7565b905092915050565b612de4816137ef565b82525050565b6000612df5826136b7565b612dff81856136e5565b935083602082028501612e11856136a7565b8060005b85811015612e4d5784840389528151612e2e8582612dc7565b9450612e39836136d8565b925060208a01995050600181019050612e15565b50829750879550505050505092915050565b612e6881613801565b82525050565b6000612e79826136c2565b612e8381856136f6565b9350612e93818560208601613872565b612e9c81613a3e565b840191505092915050565b6000612eb2826136cd565b612ebc8185613707565b9350612ecc818560208601613872565b612ed581613a3e565b840191505092915050565b6000612eeb826136cd565b612ef58185613718565b9350612f05818560208601613872565b612f0e81613a3e565b840191505092915050565b6000612f24826136cd565b612f2e8185613729565b9350612f3e818560208601613872565b80840191505092915050565b6000612f57601a83613718565b9150612f6282613a4f565b602082019050919050565b6000612f7a601b83613718565b9150612f8582613a78565b602082019050919050565b6000612f9d603283613718565b9150612fa882613aa1565b604082019050919050565b6000612fc0602683613718565b9150612fcb82613af0565b604082019050919050565b6000612fe3602583613718565b9150612fee82613b3f565b604082019050919050565b6000613006601c83613718565b915061301182613b8e565b602082019050919050565b6000613029602483613718565b915061303482613bb7565b604082019050919050565b600061304c601983613718565b915061305782613c06565b602082019050919050565b600061306f602c83613718565b915061307a82613c2f565b604082019050919050565b6000613092602283613718565b915061309d82613c7e565b604082019050919050565b60006130b5603883613718565b91506130c082613ccd565b604082019050919050565b60006130d8602a83613718565b91506130e382613d1c565b604082019050919050565b60006130fb602983613718565b915061310682613d6b565b604082019050919050565b600061311e602083613718565b915061312982613dba565b602082019050919050565b6000613141602c83613718565b915061314c82613de3565b604082019050919050565b6000613164602c83613718565b915061316f82613e32565b604082019050919050565b6000613187602083613718565b915061319282613e81565b602082019050919050565b60006131aa602f83613718565b91506131b582613eaa565b604082019050919050565b60006131cd602183613718565b91506131d882613ef9565b604082019050919050565b60006131f0603183613718565b91506131fb82613f48565b604082019050919050565b6000613213602283613718565b915061321e82613f97565b604082019050919050565b6000613236602883613718565b915061324182613fe6565b604082019050919050565b61325581613859565b82525050565b60006132678285612f19565b91506132738284612f19565b91508190509392505050565b60006020820190506132946000830184612ddb565b92915050565b60006080820190506132af6000830187612ddb565b6132bc6020830186612ddb565b6132c9604083018561324c565b81810360608301526132db8184612e6e565b905095945050505050565b600060208201905081810360008301526133008184612dea565b905092915050565b600060208201905061331d6000830184612e5f565b92915050565b6000602082019050818103600083015261333d8184612ee0565b905092915050565b6000602082019050818103600083015261335e81612f4a565b9050919050565b6000602082019050818103600083015261337e81612f6d565b9050919050565b6000602082019050818103600083015261339e81612f90565b9050919050565b600060208201905081810360008301526133be81612fb3565b9050919050565b600060208201905081810360008301526133de81612fd6565b9050919050565b600060208201905081810360008301526133fe81612ff9565b9050919050565b6000602082019050818103600083015261341e8161301c565b9050919050565b6000602082019050818103600083015261343e8161303f565b9050919050565b6000602082019050818103600083015261345e81613062565b9050919050565b6000602082019050818103600083015261347e81613085565b9050919050565b6000602082019050818103600083015261349e816130a8565b9050919050565b600060208201905081810360008301526134be816130cb565b9050919050565b600060208201905081810360008301526134de816130ee565b9050919050565b600060208201905081810360008301526134fe81613111565b9050919050565b6000602082019050818103600083015261351e81613134565b9050919050565b6000602082019050818103600083015261353e81613157565b9050919050565b6000602082019050818103600083015261355e8161317a565b9050919050565b6000602082019050818103600083015261357e8161319d565b9050919050565b6000602082019050818103600083015261359e816131c0565b9050919050565b600060208201905081810360008301526135be816131e3565b9050919050565b600060208201905081810360008301526135de81613206565b9050919050565b600060208201905081810360008301526135fe81613229565b9050919050565b600060208201905061361a600083018461324c565b92915050565b600061362a61363b565b905061363682826138d7565b919050565b6000604051905090565b600067ffffffffffffffff8211156136605761365f613a0f565b5b61366982613a3e565b9050602081019050919050565b600067ffffffffffffffff82111561369157613690613a0f565b5b61369a82613a3e565b9050602081019050919050565b6000819050602082019050919050565b600081519050919050565b600081519050919050565b600081519050919050565b6000602082019050919050565b600082825260208201905092915050565b600082825260208201905092915050565b600082825260208201905092915050565b600082825260208201905092915050565b600081905092915050565b600061373f82613859565b915061374a83613859565b9250827fffffffffffffffffffffffffffffffffffffffffffffffffffffffffffffffff0382111561377f5761377e613982565b5b828201905092915050565b600061379582613859565b91506137a083613859565b9250826137b0576137af6139b1565b5b828204905092915050565b60006137c682613859565b91506137d183613859565b9250828210156137e4576137e3613982565b5b828203905092915050565b60006137fa82613839565b9050919050565b60008115159050919050565b60007fffffffff0000000000000000000000000000000000000000000000000000000082169050919050565b600073ffffffffffffffffffffffffffffffffffffffff82169050919050565b6000819050919050565b82818337600083830152505050565b60005b83811015613890578082015181840152602081019050613875565b8381111561389f576000848401525b50505050565b600060028204905060018216806138bd57607f821691505b602082108114156138d1576138d06139e0565b5b50919050565b6138e082613a3e565b810181811067ffffffffffffffff821117156138ff576138fe613a0f565b5b80604052505050565b600061391382613859565b91507fffffffffffffffffffffffffffffffffffffffffffffffffffffffffffffffff82141561394657613945613982565b5b600182019050919050565b600061395c82613859565b915061396783613859565b925082613977576139766139b1565b5b828206905092915050565b7f4e487b7100000000000000000000000000000000000000000000000000000000600052601160045260246000fd5b7f4e487b7100000000000000000000000000000000000000000000000000000000600052601260045260246000fd5b7f4e487b7100000000000000000000000000000000000000000000000000000000600052602260045260246000fd5b7f4e487b7100000000000000000000000000000000000000000000000000000000600052604160045260246000fd5b6000601f19601f8301169050919050565b7f557365722063616e6e6f74206d696e74206d6f7265204e465473000000000000600082015250565b7f5075626c6963206d696e74696e67206e6f7420656e61626c65642e0000000000600082015250565b7f4552433732313a207472616e7366657220746f206e6f6e20455243373231526560008201527f63656976657220696d706c656d656e7465720000000000000000000000000000602082015250565b7f4f776e61626c653a206e6577206f776e657220697320746865207a65726f206160008201527f6464726573730000000000000000000000000000000000000000000000000000602082015250565b7f4552433732313a207472616e736665722066726f6d20696e636f72726563742060008201527f6f776e6572000000000000000000000000000000000000000000000000000000602082015250565b7f4552433732313a20746f6b656e20616c7265616479206d696e74656400000000600082015250565b7f4552433732313a207472616e7366657220746f20746865207a65726f2061646460008201527f7265737300000000000000000000000000000000000000000000000000000000602082015250565b7f4552433732313a20617070726f766520746f2063616c6c657200000000000000600082015250565b7f4552433732313a206f70657261746f7220717565727920666f72206e6f6e657860008201527f697374656e7420746f6b656e0000000000000000000000000000000000000000602082015250565b7f54686520626f737320686173206e6f74206265656e206465666561746564207960008201527f6574000000000000000000000000000000000000000000000000000000000000602082015250565b7f4552433732313a20617070726f76652063616c6c6572206973206e6f74206f7760008201527f6e6572206e6f7220617070726f76656420666f7220616c6c0000000000000000602082015250565b7f4552433732313a2062616c616e636520717565727920666f7220746865207a6560008201527f726f206164647265737300000000000000000000000000000000000000000000602082015250565b7f4552433732313a206f776e657220717565727920666f72206e6f6e657869737460008201527f656e7420746f6b656e0000000000000000000000000000000000000000000000602082015250565b7f4552433732313a206d696e7420746f20746865207a65726f2061646472657373600082015250565b7f4552433732313a20617070726f76656420717565727920666f72206e6f6e657860008201527f697374656e7420746f6b656e0000000000000000000000000000000000000000602082015250565b7f4552433732314d657461646174613a2055524920736574206f66206e6f6e657860008201527f697374656e7420746f6b656e0000000000000000000000000000000000000000602082015250565b7f4f776e61626c653a2063616c6c6572206973206e6f7420746865206f776e6572600082015250565b7f4552433732314d657461646174613a2055524920717565727920666f72206e6f60008201527f6e6578697374656e7420746f6b656e0000000000000000000000000000000000602082015250565b7f4552433732313a20617070726f76616c20746f2063757272656e74206f776e6560008201527f7200000000000000000000000000000000000000000000000000000000000000602082015250565b7f4552433732313a207472616e736665722063616c6c6572206973206e6f74206f60008201527f776e6572206e6f7220617070726f766564000000000000000000000000000000602082015250565b7f54686520626f73732068617320616c7265616479206265656e2064656665617460008201527f6564000000000000000000000000000000000000000000000000000000000000602082015250565b7f596f7520646964206e6f7420726561636820746865206e65656465642066656560008201527f20746f206d696e74000000000000000000000000000000000000000000000000602082015250565b61403e816137ef565b811461404957600080fd5b50565b61405581613801565b811461406057600080fd5b50565b61406c8161380d565b811461407757600080fd5b50565b61408381613859565b811461408e57600080fd5b5056fea2646970667358221220987aa191aba4b1b0c01aa207756bbd2ec1ebdd6b3ae7487928deef75215c0d8864736f6c63430008040033",
  "linkReferences": {},
  "deployedLinkReferences": {}
}